:10000000001C00201D1E000013710000091E0000CE
:10001000091E0000091E0000091E0000000000006B
:10002000000000000000000000000000E11E0000D1
:10003000091E000000000000811E0000091E0000D3
:10004000AD200000AD200000AD200000AD2000007C
:10005000AD200000AD200000AD200000AD2000006C
:10006000AD200000AD200000AD200000AD2000005C
:10007000AD200000AD200000AD200000AD2000004C
:10008000AD200000AD200000AD200000AD2000003C
:10009000AD200000AD200000AD200000AD2000002C
:1000A000AD200000AD200000AD200000AD2000001C
:1000B000AD200000AD200000AD200000AD2000000C
:1000C000AD200000AD200000AD200000AD200000FC
:1000D000AD200000AD200000AD200000AD200000EC
:1000E000AD200000AD200000AD200000AD200000DC
:1000F000AD200000AD200000AD200000AD200000CC
:1001000053B94AB9002908BF00281CBF4FF0FF317E
:100110004FF0FF3000F00CB8ADF1080C6DE904CEE3
:1001200000F010F8DDF804E0DDE9022304B07047C8
:10013000704700BF034613F8012B002AFBD1181AA1
:10014000013870472DE9F04786468C460846089EE0
:10015000154674461946002B40F0C2808542B2FA1B
:1001600082F245D94AB1C2F1200300FA02FC2EFA0C
:1001700003F3954043EA0C0C94404FEA154EA8B2A5
:10018000BCFBFEF8230C0EFB18CC08FB00F943EA7D
:100190000C43994528D9EB1808F1FF3704D299454B
:1001A00002D9A8F102072B44A3EB0903A4B2B3FBC5
:1001B000FEFC0EFB1C330CFB00F044EA0344A0429F
:1001C00014D92C190CF1FF3304D2A04202D9ACF19E
:1001D00002032C44241A43EA07401EB1D4400023F2
:1001E00034607360BDE8F0874746DDE76346F1E7BA
:1001F00092BB431B01214FEA154EAFB2B3FBFEFC8D
:10020000200C0EFB1C330CFB07F840EA0343984517
:1002100062D9EB180CF1FF3004D2984502D9ACF149
:1002200002002B44A3EB0803A4B2B3FBFEFC0EFBBD
:100230001C330CFB07F744EA0344A7424ED92C19A0
:100240000CF1FF3304D2A74202D9ACF102032C44D3
:10025000E41B43EA0040C0E7C2F1200320FA03F1A7
:10026000954090402EFA03F303434FEA154EAFB288
:10027000B1FBFEFC0EFB1C10190C0CFB07F841EA4D
:100280000041884504FA02F422D969180CF1FF30C4
:1002900004D2884502D9ACF102002944A1EB08013F
:1002A0009BB2B1FBFEFC0EFB1C110CFB07F743EAF3
:1002B00001439F420ED9EB180CF1FF3104D29F424B
:1002C00002D9ACF102012B44DB1B41EA004192E769
:1002D0006046E3E76146F7E76046A3E76346B7E7B2
:1002E000834206D916B9002108467BE7C6E900E03B
:1002F000F9E7B3FA83F78FB9834201D3724508D87F
:10030000BEEB020460EB030301209C461EB90021F2
:1003100068E73846FAE7C6E9004CF8E7C7F1200C71
:10032000BB4022FA0CF41C432EFA0CF120FA0CF319
:10033000B84001434FEA14490EFA07F5B3FBF9F848
:100340001FFA84FE09FB18300B0C08FB0EFA43EA77
:1003500000439A4502FA07F240D9E31808F1FF304A
:1003600004D29A4502D9A8F102002344A3EB0A0360
:1003700089B2B3FBF9F809FB183308FB0EFE41EA1A
:1003800003418E452CD9611808F1FF3304D28E4504
:1003900002D9A8F10203214443EA0040A0FB0298DD
:1003A000A1EB0E014145CE46434602D306D14D4551
:1003B00004D2B9EB020E68EB04030138002EA6D07C
:1003C000B5EB0E0261EB030101FA0CFC22FA07F314
:1003D0004CEA0303F940C6E9003198E74046C5E717
:1003E0004346D9E72DE9F04F91B08407009302F01E
:1003F00004030293C2F3C20303F10103DDF8688032
:10040000039205460E46059340F0BA81041D30B1B3
:10041000072909D86FF01B0011B0BDE8F08F01F07B
:1004200007063444C6F10806009B4FF00009591E28
:100430004FF0040A4FF0FF330193CDF810904F4670
:10044000CB4653460DB1009A22600598002800F370
:10045000E8809848009A824203D397488242C0F0CD
:10046000E080039AA4EB050E92074FEA9E0000F18C
:1004700003810F2F00F2B180002D00F0058107F1FC
:1004800040020DEB020C019A0CF8200C0CF8102C19
:10049000049801300490E7E07A285DD84B280ED804
:1004A000472859D829282DD8252852D054D8202873
:1004B0007AD02338D0F1000B4BEB000B74E04C38B2
:1004C0002E2849D8DFE800F0704848484848484896
:1004D000484848484B484848484848484859484B85
:1004E0004B595959704B6D487048184B1848488201
:1004F0007F4B48484B487F0000204FF0000B4FF0E7
:10050000040A38E02A38C0B2012202FA00F010EAE8
:100510000E0F49D110F0625C2FD110EA020B43D0CC
:100520006046013C5444B4FBFAF40AFB04F4002D89
:1005300061D0A3EB050CA444B4453FF66BAF002893
:1005400068D1042B47D158F8043B236004340423BA
:100550002AE0019A013A01924FF0000B24E011F8D1
:10056000010C6C2834D111F8023C00206C2B83461E
:10057000C5D14FF0080A5346D3E708F1070828F021
:1005800007080734F8E802AB24F0070435B10698F1
:100590002044B0423FF63EAFC4E900AB08344FF010
:1005A000000B4FF0080A534611F8010F002878D0CD
:1005B000BBF1000F7FF470AF2528F5D1019B01330B
:1005C00001934FF0010B4FF0040AECE7584694E713
:1005D00000208346A5E7082B02D06FF015001BE72B
:1005E00008F1070828F00708F8E80223C4E9002307
:1005F00008340823D8E768B9042B02D108F10408AD
:10060000A4E7082BE9D108F1070828F0070808F14A
:100610000808EDE7059A013A059258F8042B009274
:1006200010E7039A900720D5A4EB050E4FEA9E0031
:100630004FF0010CBEF5007FCFD20F2FCDD8F5B112
:1006400007F140020DEB020EC0B2019A0EF8200C29
:100650000EF8102CBCF1000F3FF41AAF60F07F00D1
:100660000EF8200C09F101090137C5F10802043424
:1006700006924FF6DA7E97E74FF0000CDAE7BCF10E
:10068000000F01D00136EFE7029802360028EBD1C7
:100690000098CDE90631FFF74DFDDDE9063106444E
:1006A000E2E7631BB3F5806F97D23DB9A6F108046A
:1006B000E018B1E6BC7E0000EC8F0000029A2860D2
:1006C0009B082B709DF81030C2B1EB7085F802903A
:1006D000B9F1000F05D008A80022C5F1010C97421E
:1006E0000ED1C5F101030DF120084FF0000A01936E
:1006F0000DF1300B574512D1601B8DE66B70E5E7AD
:1007000010F8013B190608D50CEB040EB64503F0B2
:100710007F033FF67FAE04F8013B0132DFE7B9F11A
:10072000000F03D098F90020002A17DB029BD3B1F9
:100730001AF80B2004F8012B0022019B1819104411
:10074000B0423FF667AE98F8000004F8010B00993C
:100750000392204607F027FB039A14440AF1010A8A
:1007600008F10108C6E798F8002055F822300093F8
:10077000029B45F822300098FFF7DCFC421CDCE7C6
:100780006FF00D0048E600BF2DE9F04F97B000AFC5
:1007900090F802A0D7F880B03B62CBF3C0030446C8
:1007A000FA62BB61894641B9457800780AEB80005E
:1007B00020444D4517D8A0EB0409E378FB61BAF15A
:1007C000000F02D01BF0010F16D1FB6953BBFB6A6F
:1007D0001BB13A6A4946204698474D4628465C3741
:1007E000BD46BDE8F08F461C3046FFF7A3FC013044
:1007F000304409F10109DCE7237862687A62FA6A19
:100800009900796104EB8301002A40F000814D4694
:100810000E4601EB0A094FF000084E454CD101EBA2
:100820000A0610E01BF0020FD1D023789A007A61FB
:1008300062687A62FA6A04EB8301002A77D14D4636
:1008400001EB0A0690461BF0050F0CBF02230123A3
:10085000FB62FB6906EB430A0BF00203BB625645E1
:10086000BCD016F8021B16F8013C54F82390994BA3
:10087000994502D3984B994536D3BB69002B40D09C
:10088000786A05F063FF00283BD0E9468AB06A46E3
:10089000924B53617B6AC2E906314FF400731384B3
:1008A0008F4B42F8103F8F4800234FF4125100F055
:1008B00023FD023DCD46D2E716F8013BF96254F81C
:1008C0002300FFF737FCD7F88430F96A01304BB1C9
:1008D000D7F8883098453EBFD7F8843023F8180001
:1008E00008F10108054498E7BB6923B1786A05F06F
:1008F0002DFF0028C9D11BF0010F05D1FB6AED1AAD
:10090000ADE7BB6A002BAAD04846FFF713FCD7F827
:10091000843053B1D7F8883098453FBFD7F884204A
:10092000431C22F8183008F10108054497E7BAF192
:10093000000F72D01BF0040672D0D046002607F1DB
:10094000480052463B61B96207F02DFAB96A3B692B
:1009500001EB0A02BA62FA69F9695200FA60BA6AEE
:1009600002EB41023A610BF00202BA603A69B96ADD
:100970008A4257D162787A621BF0020F32440CBF70
:100980004FEA580100211BF0010FD2B240F09F80C6
:100990001BF0040F14BF40460020BB616270A070C2
:1009A000E1703A6A7969FB6A20469847051EFFF6AE
:1009B00015AFBB6923707B6A6370FB69E3704146C6
:1009C0003A6AFB6A84F802A007F148009847B0F140
:1009D0000008C0F2BB807B693A6AA9EB0A01C91A18
:1009E000FB68C91AD7E90A0398470028C0F2B0800B
:1009F000A84408EB00054FF0000B07F1380AB34597
:100A000072D300213A6AFB6A08469847E6E65646E2
:100A10004FF0000807F1380093E75646D04697E7B5
:100A2000B04695E7BA6A12F8021BBA6212F8015C86
:100A3000284A54F82500904202D3274A90421ED3F8
:100A4000BA6932B1786A7B6005F080FE7B68002865
:100A50008CD1BA6802BB08F1280207F1300C08F10A
:100A60000100944407F1580252FA80F008F102089C
:100A70000CF8101C5FFA88F800F8105C76E7BA6989
:100A80003AB1786A7B6005F061FE7B6800287FF4EC
:100A90006DAF1BF0010F09D006F1280207F13000FD
:100AA000711C161806F8205CCEB25FE71BF0040F2D
:100AB0003FF45CAF08F1280207F1300008F10101B2
:100AC00002EB000808F8105C5FFA81F84EE700209E
:100AD00063E700BFBC7E0000EC8F0000C484000010
:100AE00004000001B48100001BF80A3087F8373099
:100AF00054F82390D7F884302BB3D7F888309B452F
:100B000021D2D7F8843033F81B803A6AFB6A01217E
:100B100007F13700984700281ADB0544B8F1000FA9
:100B200006D14846FFF706FB00F101081FFA88F8D6
:100B30003A6AFB6A414648469847002808DB054464
:100B40000BF1010B5BE74FF00008DEE7454645E699
:100B5000054643E6014B1860704700BF00000020C7
:100B600080B505460E461746984604F087FF0346B3
:100B700007F09AF9DFF81890044649F80030424629
:100B800030463946A84754F8090001F063F900BF20
:100B9000080000002DE9F047058B04462807904621
:100BA00011D4022905F0070540F0CC80204606F05C
:100BB0006BF878B10138218B042811D8DFE800F0F8
:100BC000C2106D85950001290CBF45F0100545F058
:100BD0002005258388F31188BFF36F8FBDE8F08768
:100BE00001F0070AAA4500F0A5800027B9463E4655
:100BF000A368002B00F0BC8041F00801218388F33A
:100C00001188BFF36F8FA168002900F0BA800D68CA
:100C1000002900F0B680D1F80480334652462046C1
:100C2000C047002D76D02B6829461D46F0E701F01D
:100C300007035A1F012A1BD8002221F00701062BA7
:100C4000276889B2C4E9002209D13B4603E0628BE0
:100C5000013262831B68002BF9D141F0020121832C
:100C6000204606F011F800287AD041F0200176E005
:100C7000042B0AD121F0070189B22183204606F016
:100C800003F810B141F020012183218B01F0070A04
:100C9000AA454FD00027B946AAE7236921F00701EA
:100CA00041F00601062DD3F8009021832DD1B9F132
:100CB000000F3FD041F00801218388F31188BFF372
:100CC0006F8F3A492046C84729E021F00701236980
:100CD00041F0040189B2042DD3F804902183E6D0B9
:100CE00000273E464FF0040A82E721F007012369FE
:100CF00041F0050189B2052DD3F808902183D6D0A3
:100D000000273E464FF0050A72E700273E464FF0A7
:100D1000060A6DE72B4687E7B9F1000FD1D1EFF353
:100D20001188202383F31288BFF36F8F238B23F066
:100D300008032383258BEA062ED525F01003238391
:100D400005F007056669218B002EBFF670AF002302
:100D50002768C4E9003321F0070141F00101218334
:100D6000218B01F0070AAA454FF000097FF440AF3C
:100D7000002F9CD041F00801218388F31188BFF334
:100D80006F8F002FC8D03D68394633465246204603
:100D900005F0A6FF2F46F4E7AB067FF51BAF25F065
:100DA0002003238305F0070500E700BF0D6D000059
:100DB0002DE9F047DFF85880044607464FF0010957
:100DC00014B93846BDE8F08794FAA4F5B5FA85F56C
:100DD00009FA05F32E0108EB05156FEA030A24EA68
:100DE00003042B7B002BEBD058F806301B694BB962
:100DF0004644042273682846196807EA0A0706F081
:100E00004FF8DDE7284698470028D9D1F0E700BF22
:100E10000C82000030B51049104889B0002206F05D
:100E20009AFF0F4D0F4900220023CDE9062300242D
:100E30000E23CDE90334CDE901440B4B00944FF46C
:100E40004072284604F0CCFB0849284606F081FE93
:100E5000204609B030BD00BF710E000068060020BA
:100E6000E0010020000B00209D11000078850000AB
:100E7000014804F0D5BA00BFD00100202DE9F047A9
:100E8000804621480F4605F0EBFF0646002833D088
:100E900000252846BDE8F087237B83B12368DB6803
:100EA0000BB120469847636883F8069023681B6956
:100EB000D3B9636804221968204605F0F1FF0136B2
:100EC00010345445E8D3B8F1000FE2D0002DDFD044
:100ED0002846FFF76DFF0546002FF7D000214FF49D
:100EE000A47006F0CCFEF1E7204698470028E0D039
:100EF00009FA06F31D43E2E7044CDFF814A00546A7
:100F00004FF00109DDE700BF380900200C82000026
:100F10001C820000014B53F8200070473C82000007
:100F200008B5034608462BB1044A136000F07AFC6A
:100F3000002008BD6FF01500FBE700BF0400002093
:100F400010B5044C237813B9034804F069FA01235F
:100F5000237010BDA00A0020D001002010B5044667
:100F60000B4805F07DFF5CB1BFF35B8F094B53E885
:100F7000001F013943E80012002AF8D1BFF35B8F4C
:100F8000054806F0F4FE0548BDE8104004F048BAF4
:100F9000300900203409002068060020D00100201C
:100FA0000020064BBFF35B8F014653E8000F43E878
:100FB0000012002AF9D1BFF35B8F7047300900207F
:100FC00070B5FFF7EDFF084C084E0546B44200D35C
:100FD00070BD63685B792BB123685B6813B12946E8
:100FE000204698471034F1E70C8200001C82000074
:100FF00010B5044C0449204605F0DFFC034B1C608F
:1010000010BD00BF940100202882000028090020A4
:101010000D4A0E48002310B513700D4A13600D4A97
:101020004FF400411360FFF77BFFFFF7E1FF0A4B2E
:101030000A4918468B4200D310BD1A1A5C68121177
:10104000013222711033F5E7A10A00205D6E000025
:1010500030090020340900200C8200001C820000AE
:10106000014600220148002305F0C8BC940100207D
:10107000014805F061BD00BF94010020024B01460C
:10108000186805F0ADBD00BF28090020014805F033
:10109000E2BD00BF9401002070B5294B18780028EC
:1010A0004DD0FFF7E5FF0546002845D1254B264CDE
:1010B0001B68002B19DD06F04CFE4FF47A72A0FB82
:1010C000020302FB0131C30BD4E9002043EA414390
:1010D0009B1A4FEAD13140F2E93261EB00019342B1
:1010E00071F1000101D3FFF76BFFD4E9003213F572
:1010F0007A7342F10002C4E90032BDE87040FFF7A4
:10110000C5BF63685B7923B1236829461B68204605
:1011100098471034B442F4D32846FFF7AFFFBFF32B
:101120005B8F0A4B53E8001F013943E80012002A85
:10113000F8D1BFF35B8FB9E7054C064EEAE770BD07
:10114000A00A002030090020600600203409002099
:101150000C8200001C82000070B50D4D297861B929
:101160000120FFF78BFE0B4C0B4EB44206D3FFF76A
:1011700093FF0028FBD101232B7070BD63685B795E
:101180001BB1236820469B6898471034EDE700BFE9
:10119000A10A00200C8200001C82000000212DE921
:1011A000F0470846FFF76AFE044658B340F2676806
:1011B0004FF0000906F078FE1B4B1C4A1B581360C9
:1011C00033B11B4B1B68092B02DD1A4804F028F9C8
:1011D000194FDFF860A0002544B12046FFF7E8FD75
:1011E000044618B94FF0FF384FF0FF39FFF754FFAE
:1011F000064628B9B5B942464B46504604F044F974
:101200003546E9E74FF0FF384FF0FF39D2E72B685A
:101210009B691BB100221146284698471035BD42F4
:10122000F5D3E8E7054DFAE7080000002C09002097
:1012300034090020D00100201C8200000C82000034
:1012400013B5184805F00CFE174B1B7873B1EFF37C
:101250001184202383F31288BFF36F8FFFF71CFFE5
:1012600084F31188BFF36F8F02B010BD0F4B1B6862
:10127000002BF9D050B900220023CDE900230C48FF
:101280004FF40042002304F0FBFEEDE70928EBD108
:10129000074806F06CFD074802B0BDE8104004F0B6
:1012A000BFB800BF34090020A10A00202C0900208B
:1012B00068060020D001002010B5064B1B680446CC
:1012C00098472146A060044805F017FCBDE810408F
:1012D000FFF7B6BF0400002094010020044A054B2C
:1012E0009B1AB1EBD30F34BF52F831000020704786
:1012F000B48100000C8200002DE9F04F8FB004AFE4
:10130000C1F34A28B8600D4691467B600C0DB8F1D8
:10131000000F63D0002607F114034FF0040B4FF0C9
:101320000A0AC7F80C80C7E907667E620193CDF808
:1013300008B0CDF800A007F11C03F9683246484612
:10134000FFF722FAB0F5006F03461CD36C468AB053
:10135000D9F8041004AB2648C3E9050140F2FF7137
:10136000D9611A464FF400711984224B42F8103F9C
:10137000214833464FF41251FFF7BEFFA5462C37E4
:10138000BD46BDE8F08FC0F30A0804F11700184409
:1013900020F0070080083B60FFF762FE68F35325EA
:1013A000044690B13B68154AC7E9083600F11001C0
:1013B00007F11403F961CDE900A3CDF808B0F9688D
:1013C00007F11C034846FFF7DFF968F353257B68F4
:1013D000B9682A46204605F083FDD0E704F11700DE
:1013E00020F007008008FFF73BFE0446EDE700BF52
:1013F0008D85000004000001C4810000B36E000070
:101400002DE9F04F87B0DDE91279DDE9105A044685
:10141000039193469846BFB1CDF800903B465246A3
:1014200010210020CDF81490FEF7DCFFB0F5006F1E
:1014300006460AD3184A194840F2FF73022107B042
:10144000BDE8F04F05F0A5BD3E4605F1170030445C
:1014500020F0070004F007048008FFF701FE0BF0FE
:10146000070BE40044EA8B1444EA462444EA05549A
:10147000054640B13FB1CDF800903B46524631465B
:101480001030FEF7AFFF039943462246284607B0C7
:10149000BDE8F04F05F024BDCC850000C4810000FC
:1014A000406820B1034BC01A40F3CF0070474FF0A3
:1014B000FF307047B48100000EB403B503AB0146A2
:1014C00053F8042B0448019300F076FF02B05DF856
:1014D00004EB03B0704700BFDD6F0000CA0605D4FF
:1014E0008B064CBF02490349FFF7E6BF704700BFB8
:1014F00005860000048600002DE9F04F89B09B4668
:10150000149B06939DF84CA0159B0593169B179E64
:10151000049304460D469046BAF1000F00F09D80FA
:1015200006F48073079305F0B9FC06F00209024641
:1015300000283ED091492046FFF7BEFF0746B9F18B
:10154000000F08D016F0440F35D18D492A462046A9
:10155000FFF7B2FF074406F0010353B1894B8A49F4
:1015600053F82A20894B2046002A08BF1A46FFF765
:10157000A3FF06F48073002B49D006F00803002B6C
:1015800063D1B8F1000F66D0814942462046FFF78B
:1015900093FF0546069B3D44002B6DD1049B002B19
:1015A00073D1F30700F1E48031462046FFF796FF40
:1015B000D8E00746C3E7774B18680028CAD0764BB7
:1015C0004FF47A791B68B5FBF3F54FF46163B5FB13
:1015D000F0F100FB115509FB05F54FF03C0CB1FB98
:1015E000F3F203FB1211B5FBF0FEB1FBFCF300FBC1
:1015F0001E550CFB131109FB05F50091B5FBF0F529
:101600006649CDE901E52046FFF756FFA2E706F05F
:101610000803EBB1624B634953F82A202046FFF7D9
:101620004BFF0546B8F1000F05D059494246204608
:10163000FFF742FF0544BBF1000FABD05A495A46B1
:101640002046FFF739FF0544A4E74FF0000BE1E720
:1016500006F00805E6E745469CE7BBF1010F069B4F
:1016600006D1002B64D1049B002B7BD000250CE01D
:10167000002BF8D04D485CE04D48069B4D49224672
:1016800005F033F8049B002B68D0DFF82C81DFF8DD
:101690002C91049F3146102F204628BF1027FFF7BA
:1016A0001DFF4FF0000B5D4545DC059B49461A7850
:1016B0002046FFF701FF4FF0010B1BF0070F03D18E
:1016C00041462046FFF7F8FE5F453BD9059B49465A
:1016D00013F80B202046FFF7EFFE0BF1010BBBF1D7
:1016E000100FEAD1364920464FF0000BFFF7E4FE19
:1016F0005A46059B9A5CA2F120015F2928BF2E2241
:1017000030492046FFF7D8FE0BF1010BBBF1100F5B
:101710001DD01BF0070F03D141462046FFF7CCFE3A
:101720005F455A46E5D841462046FFF7C5FEEBE740
:101730001F485546A1E741462046FFF7BDFE0BF185
:10174000010BB0E720492046FFF7B6FEC5E7059B31
:101750003B440593049BDB1B04939AD1BAF1000F21
:101760007FF41FAF204609B0BDE8F04F05F029BC5B
:10177000064A05492046FFF79FFE15E70C86000044
:10178000108600004C820000548C00000786000088
:1017900035860000400900203C0900201986000021
:1017A00060820000398600003F8600001370000050
:1017B000DD6F0000B92300004C8600004486000065
:1017C0004E860000508600004A86000073B542F243
:1017D0000F738B4228BF0B4605680F4A044605214C
:1017E000684604F08BFC63680C495B6806460B2274
:1017F000284605F0D8FB63683246694628465B6890
:1018000005F0D1FB636806495B681B22284605F09A
:10181000CAFB02B070BD00BF608700006F86000089
:1018200053860000074A00210123904206D8064A49
:1018300001B901231360054B1860704740085B0035
:101840000121F2E740420F003C090020400900203E
:10185000F8B5074F0D4604464618B44201D1284654
:10186000F8BD14F8011BBB6801485B689847F4E7B2
:101870004C7F0000014B036000207047A8820000ED
:101880002DE9F047064600AF0C46002936D0E94660
:101890008AB0D1E90012A3686D462148A8464FF0EE
:1018A000050AC5E90501C5E9072348F810AF1D4839
:1018B000424600234FF42151FFF71EFDCD46D4E9E7
:1018C00003126369AD461848C5F810A0C5E90501C3
:1018D000C5E907231348002342464FF42151FFF77F
:1018E0000BFDCD46E369114A0E48012105F051FB7D
:1018F000A3690F4A0B48012105F04BFB012E07D1CC
:10190000EFF305830B4A0748103B314605F041FBD6
:101910002146304603F0DEFBBD46BDE8F08700BF40
:10192000B5860000E4810000E48600001387000013
:10193000228700005087000030BFFFF7FDBF00BFC7
:101940002DE9F0410B4EDFF8308006EB0807CC1B89
:10195000054632460949204606F025FAA0194246B6
:101960000021083C06F02DFA2C6707F10800BDE8BD
:10197000F08100BF00000000040000001C82000095
:10198000054B5A699B689A421FBF044A536843F04B
:1019900080535360704700BF740A002000ED00E0E0
:1019A00070B5294C06460D462848294905F0B8FB74
:1019B000A36AD9043CD52548264905F0B1FB172078
:1019C000A36A1A0504D52148234905F0A9FB18206C
:1019D0001D4CA36A9B0512D51C48204905F0A0FBAD
:1019E000A36BA26A100409D51D4A1848012105F00D
:1019F000D0FA1EB1A36A23F40043A3621920124C4B
:101A0000A36A590504D51148164905F089FB1A2027
:101A1000A36ADA050ED50D48134905F081FB1B209A
:101A2000094A936A43F47F43936200232B7070BD8D
:101A30001620C5E7A36A9B04F2D504480B4905F0BC
:101A40006FFB1C20ECE700BF00ED00E0E48100002C
:101A500063870000798700008A8700009D87000067
:101A6000B6870000CB870000E6870000FE870000F5
:101A700010B5204C2049214805F052FBA36A99017A
:101A800036D51E481E4905F04BFB1E20A36ADA011D
:101A900004D51A481B4905F043FB1F20154CA36AC7
:101AA0001B0304D51548184905F03AFB2120A36A09
:101AB000590304D51148154905F032FB22200D4C7D
:101AC000A36A9A0304D50D48114905F029FB232088
:101AD000A36ADB0304D509480E4905F021FB242045
:101AE000044A936A6FEA03436FEA1343936210BD9B
:101AF0001D20CBE700ED00E02D880000E481000010
:101B00004588000058880000728800009088000016
:101B1000B5880000CF8800002DE9F843364D804697
:101B2000894636483649174605F0FAFAAB6ADE06AA
:101B300027D53449314805F0F3FA1124AB6A1D0763
:101B400004D531492D4805F0EBFA12242A4DAB6A31
:101B5000980718D52D49294805F0E2FA6E6BAB6A53
:101B6000190646D52A4A25483346012105F011FABF
:101B7000B9F1000F03D0AB6A23F08003AB621324EA
:101B800003E01024DAE76FF015061B4DAB6ADA07A5
:101B900004D52049194805F0C3FA1424AB6A9B0602
:101BA00004D51D49154805F0BBFA1524124B9A6A55
:101BB000D50602D49A6A90070AD55B68190507D53D
:101BC0004146304600F02CFA10B180F30988022417
:101BD000094B9A6A920642BF5A6A22F400525A622C
:101BE0009A6A42F0FF029A6200233B702046BDE8E9
:101BF000F8836FF01506C2E700ED00E0E481000015
:101C0000FA880000108900008A87000043890000DC
:101C10005B89000071890000FE8700002DE9F0411A
:101C2000664B8AB0D3F8048000AF0446C8F30805B9
:101C3000002686F31188BFF36F8F02F07F43B3F164
:101C40007F4F07D102F00C03082B12D15C495D488D
:101C500005F066FA002634460023FB71EB1E092BC3
:101C600000F28A80DFE803F00A80837C8888888815
:101C7000888610074CBF0C460126EDE752495148B3
:101C80004E4D05F04DFA0023FB71EB6A9A0705D51E
:101C90004E494C4805F044FA002332E0EB6A002B31
:101CA00001DA4B49F5E7EB6A5B00F5D54949454850
:101CB00005F036FA6B69A26943F480736B61BFF378
:101CC0004F8FBFF36F8F6B6932F8022C23F4807350
:101CD0006B61BFF34F8FBFF36F8F4DF602739A4264
:101CE00008D0AB6ADBB273B3FA1D01212046FFF7BF
:101CF00013FF37E02368384A3248012105F049F9DB
:101D00002368FA79DAB907F1080504F1200C206894
:101D100061682A4603C2083464451546F7D17A6AD9
:101D2000002E45D0C2F3080121B96FEA52226FEAB2
:101D300042227A6207F108011846FFF7A1FD283711
:101D4000BD46BDE8F081AB6A13F47F4F04D0F91DA6
:101D50000120FFF725FE05E0AB6AB3F5803F9BD37A
:101D6000FFF786FE0346CCE7FA1D0021BEE7F91D0A
:101D70000020EEE719498CE7194A1A4B18F4F87F4E
:101D8000E8468AB018BF13466A461749C2E90513E8
:101D90004FF400731384103D144BD56142F8103F8B
:101DA000084800234FF41151FFF7A6FAC54673E720
:101DB00022F4FF7222F00102BBE700BF00ED00E059
:101DC000BE890000E4810000E9890000008A00006B
:101DD000218A00002F8A00004E8A00006A8A0000D3
:101DE000A5890000908900008E8A0000040000018F
:101DF000044B5A6942F010025A615A6922F00802F3
:101E00005A61704700ED00E0EFF30880EFF30981BD
:101E100001B57246FFF702FF01BD00BF0B4880F31A
:101E2000088801F027FE202080F3118808484FF42D
:101E30000461401880F30988EFF3148002210843FD
:101E400080F31488BFF36F8F00F0B2F8001C0020FD
:101E5000400E0020084B9B6883420BD1EFF30583B3
:101E600043B1064B5A6842F080525A605A6A22F4D3
:101E700000425A6203F008BE740A002000ED00E040
:101E800014498A684FF030001044EFF3098C80E861
:101E9000F01F202080F31288BFF36F8F0E4F4FF09A
:101EA00000664A698A603E60106F0C4C2060506F7B
:101EB0000023536780F3118804B5104600F014F92D
:101EC000BDE8044002F1300090E8F01F8CF309886F
:101ED00070470000740A002004ED00E0680900204B
:101EE0001EF0040F0CBFEFF30880EFF30980816947
:101EF00011F8021C0229FFD001B5724605F005F960
:101F000001BD00BF40B2002807DB044A410901239C
:101F100000F01F00834042F82130704700E100E0EC
:101F200040B200280CDB4309064900F01F002033B3
:101F30000122824041F82320BFF34F8FBFF36F8F00
:101F4000704700BF00E100E0054B420900F01F00B0
:101F500053F82220012303FA00F01040704700BF1D
:101F600000E100E040B20028A8BF00F1604001F1AC
:101F70000101B8BF064B4FEA4111ACBF00F561400B
:101F800000F00F00C9B2B4BF195480F800137047B5
:101F900014ED00E0044B054A23F07F039360BFF388
:101FA0004F8FBFF36F8F70470000000000ED00E01F
:101FB00008B5FFF7EFFF0B4AD2F8883023F470031F
:101FC000C2F88830EFF3148323F0040383F31488FA
:101FD000BFF36F8F03F076F903F078FE00F05AF844
:101FE00003F0B4F900ED00E042F8203C009B42F819
:101FF0001C3C0A49019B42F8183C029B42F8143CE5
:1020000021F001014FF0807342F8043C42F8081CB3
:102010000023203A02654367704700BF610B000050
:10202000094A0346906870B113F1160F006E05D08F
:10203000A0F140029A4205D8834203D2814228BFD0
:102040000020704700207047740A002008B515462C
:10205000094A0A4B9060026F1A600E4600F044F87D
:102060002C4686F309880020054B9847204600211E
:1020700000220023034C2047740A00206809002036
:1020800031710000610B0000014B10221A61704792
:1020900000ED00E0044800232021C2180133302B5A
:1020A00082F80013F9D1704700E100E008B5EFF3C2
:1020B0000583064A103B02EBC30152F8330049681E
:1020C0008847BDE80840FFF75BBC00BFE07F000029
:1020D000024B034A0348012100F08AB800000420A3
:1020E00000000020A8820000026E054B403A1A60F2
:1020F000044A4021C3E901121846012100F082B8C8
:102100006C09002000000B1508B503461048D0F8F4
:102110009020C2F30722013A934207D90D480E4A94
:10212000012104F036FF6FF0150008BDC0F89830AB
:102130000A6822F01F021A4342F01002C0F89C20E5
:102140008A6842F00102C0F8A0201846EDE700BFFF
:1021500000ED00E0DC810000A58A0000F0B50E462D
:1021600085B01F4604460025B5420DDA606810B3FD
:1021700097B1431E18420AD0104A11482B4601213C
:1021800004F007FF6FF01502104605B0F0BD1F28E0
:10219000F2D921680B42EFD12368019304F0EBFFE1
:1021A000A36801A90343D0B20393FFF7ADFF10F179
:1021B000160FE7D0421C01350C34D5E7CB8A00005E
:1021C000DC810000044B0522C3F89420BFF34F8F3D
:1021D000BFF36F8F704700BF00ED00E0BFF35F8F6C
:1021E000024B0022C3F89420704700BF00ED00E0CE
:1021F00010B5034C01232278FFF7B0FF207010BD0B
:10220000A30A002008B50B4A00231278FFF7A6FFA7
:1022100010F1160F07D0084A0021D2F89030C3F30E
:102220000723984200DB08BDC2F89800C2F8A0104E
:102230000130F2E7A30A002000ED00E02DE9F043B1
:1022400057485849D0F890300D68C3F307239D4292
:1022500085B000F2A180FFF7C1FF496800229542D6
:1022600001F10C011AD1504C504F25706846FFF710
:1022700001FBDFF83C81DFF83C9106460025AE42C9
:102280001FD1237846490020D1F89020C2F30722BD
:1022900093427BDBFFF796FF00204CE0C0F89820CC
:1022A00051F80C3C23F01F03134343F01003C0F814
:1022B0009C3051F8043C43F00103C0F8A0300132D7
:1022C000CDE7009800EB05114FEA051CCB683B40B9
:1022D000B3F5000F44D00AD8B3F5001F2ED0B3F5E4
:1022E000800F34D0B3F5801F10D00135C7E7B3F1AC
:1022F000807F3ED0B3F1007FF7D150F80C30886872
:102300004A6804F038FF40F4802009E050F80C30AF
:1023100088684A6804F02FFF40F0885040F430206D
:10232000039001A92078CDE90123FFF7EDFE0028F5
:1023300028DA6FF0150005B0BDE8F08350F80C30D6
:1023400088684A6804F017FF40EA0800E8E750F898
:102350000C3088684A6804F00EFF40EA0900DFE7A5
:1023600050F80C3088684A6804F005FF40F082702D
:10237000D6E750F80C3088684A6804F0FCFE40F05C
:102380008870CDE7237801332370AEE7C1F8983029
:10239000C1F8A000013377E74FF0FF30CBE700BF73
:1023A00000ED00E0B4820000A30A00200000F0FF6E
:1023B0000000081100000206F0B587B007460E467F
:1023C00014460021102268461D4605F0FAFC02233F
:1023D0008DF802302A46054B019321466846CDE927
:1023E000047603F0B5FE07B0F0BD00BF97710000A2
:1023F00008B5024B1B689847002008BD78090020EB
:10240000034B044A1860937843F0020393707047BB
:10241000780900201000002008B50649064821F080
:102420000701C1F1005202F5802204F021F90020D9
:1024300008BD00BF471C00207C0900200E4A012374
:10244000C2F840354FF080424FF08051C2F87835E5
:10245000D1F83001082808D1D1F83411052904D861
:102460000648415C09B1C2F838364FF0804301227A
:10247000C3F880250020704700E00140FD8A00007D
:1024800020B1034B800143F001031847704700BFA0
:1024900020820000084B70B5C31A0D4607499B10F7
:1024A000044659430648402204F089FE2B46014663
:1024B0002046BDE8704018479C090020B76DDBB688
:1024C000EC7E000073B50C4C0C4A4023041B0093B7
:1024D0000D460B460A49A41061430646094804F01C
:1024E00099FE011E05DA30462B4602B0BDE8704069
:1024F000184702B070BD00BF9C0900207D7200002B
:10250000B76DDBB6EC7E000010B5EFF3118420232D
:1025100083F31288BFF36F8F074A136823F0020119
:10252000DB07116002D4012005F05BF884F3118809
:10253000BFF36F8F10BD00BFEC090020002270B503
:10254000012104461046FFF70DFD0F4801F01CFC69
:102550000E4B984215D101F027FC26690C493046F4
:1025600004F0E1FB00280BDB0125356424690849F0
:1025700004F11C0004F0D7FB002801DBE564002017
:1025800070BD6FF00400FBE78D2600000000AD0B6E
:10259000D48200001FB500220123CDE90223094A9D
:1025A000CDF800D06B46CDF804D004F060FE0028D2
:1025B00005DB4FF480420023684602F065FF05B05A
:1025C0005DF804FB9B72000030B4104B0C2202FB40
:1025D000003301460020D3E90E529863EFF31180D7
:1025E000202484F31288BFF36F8F1C6C04F0C004A6
:1025F00044F002041C6480F31188BFF36F8F1DB197
:102600002B46034830BC184730BC70479C0900205B
:10261000EC7E000010B4EFF31182202383F31288C4
:10262000BFF36F8F1748016841F002040460C807C8
:1026300007D482F31188BFF36F8F012010BC01F023
:10264000C5BB4FF08041D1F80C04D1F80C14C90778
:10265000EFD5EFF3118083F31288BFF36F8F0A4930
:102660000B6C03F0C00343F002030B6480F311888A
:10267000BFF36F8F82F31188BFF36F8F002010BC00
:10268000FFF7A2BFEC0900209C09002010B101282F
:1026900004D07047034B1B6C5B0701D1FFF794BF5D
:1026A000704700BF9C0900202DE9F0413849BFF375
:1026B0005B8F0746012251E8003F41E800200028D7
:1026C000F9D1BFF35B8F33B9324933484B60CB60EC
:1026D0008A6004F03BFB7B1E012B2BD8012F07D116
:1026E0004FF08043D3F81C3403F00303012B21D0B7
:1026F00005F029FA0546F8B9284B1B78E3B14FF0ED
:1027000080430222C3F808230646DFF894804FF086
:102710008044D4F81824D4F81834D20315D503F023
:102720000303012B01D0012F0FD155B386F311887C
:10273000BFF36F8FBDE8F081EFF31186202383F3A1
:102740001288BFF36F8F0125DFE7ADB1304604F08B
:1027500003FDD4F81835002BDBD1D4F80421002A6E
:10276000D7D0C4F80431D4F804310123C4F81835A3
:10277000C8F88031A360CCE70021212005F07FFA62
:10278000E7E74FF080430222C3F80423D2E700BFFB
:102790009809002088090020B8090020C60A0020F6
:1027A00000E100E008B5074805F088F938B10648AF
:1027B000FFF726FE0448FEF7CDF9002008BD6FF0B4
:1027C0001200FBE74C7F0000CD2700000A2838B537
:1027D000074D044604D1AB680D215B682846984735
:1027E000AB6803485B68E1B29847204638BD00BF3C
:1027F0004C7F0000F0B516464268107B01F01F04C4
:1028000044EA4014106987B0002872D0B6F5001F62
:1028100002F1100506D12146284604F073FF00207E
:1028200007B0F0BD01A80027B6F5800F01974760FB
:1028300039D1B3F1007F14BF052304238DF8043090
:102840000023CDE904030393936823FA01F111F007
:1028500001010DF103073ED1B6F1A07F3BD104F099
:102860001F03620903F5E07328D0012A47D1254AE6
:1028700052F82330DB072ED43A462146284601F091
:102880008DFD214B98421CD0029703AA2146284671
:1028900001F046FC1D4B98422ED1012221462846CC
:1028A00001F0E0FDBBE7B3F1C06F05D0B3F1007FED
:1028B00014BF01230223C1E70323BFE74FF0A04267
:1028C000D6E73946284601F0C7FD104B9842DBD0C9
:1028D0006FF00B00A4E73A462146284601F05EFD62
:1028E0000A4B9842D1D19DF80310284601F0AEFD65
:1028F000CBE76FF0850093E76FF0150090E751F894
:102900002330FFDE000300500400AD0B0000AD0BD0
:10291000420970B5034602D0012A17D070BD0D4E92
:10292000326951680029F9D003F01F0301250C68B2
:102930009D400029F2D08A682A4002D04B68304678
:1029400098472CB1236821461C46F2E7024EE7E780
:102950002346F8E72C7F00000C7F000038B545685F
:102960002B69B3B11035284601F066FD044680B9E5
:102970000146284601F02CFD084B98420BD108492E
:102980002246284601F004FD224605210620FFF7D5
:10299000E9FA002038BD6FF00400FBE70000AD0B42
:1029A000112900002DE9F043466840F20635D006B3
:1029B000337B87B002EA050554BFC2F34010032001
:1029C00001F01F07B5F5837F144647EA43178DF8DA
:1029D000030045D00DD8062D16D005D8A5B1022D7F
:1029E00040D06FF0150038E0B5F5807FF9D10125B2
:1029F0000AE040F20222954236D0B5F5407F35D04C
:102A0000B5F5007FEDD102250123220303FA01F180
:102A10002ED57368C3F80815326992BB07F01F03FF
:102A20007F092BD0012F79D13F4A02EB830284F436
:102A30008033D2F80017C3F30043C4F3404444EAA0
:102A4000430421F4E16144EA800421F0070144EAEF
:102A500005230B43C2F80037002007B0BDE8F08320
:102A60000725D1E70425CFE70525CDE70325CBE7EB
:102A7000630344BF7368C3F80C15CDE74FF0A04261
:102A8000D3E710360DF102023946304601F086FCDC
:102A900014F4403F80460CD13946304604F030FEF5
:102AA000224B9845D8D19DF80210304601F0CEFC5B
:102AB000D2E701AB4FF0000903AA39463046CDE911
:102AC0000439CDE90199CDF80C9001F029FB174BA1
:102AD0009842C1D114F4003315D09DF803308DF81D
:102AE0000E3084F48034C4F300444B4603AA3946C4
:102AF00030468DF80C508DF80D4001F0CBFB0B4BA0
:102B00009842A9D1CCE7CDE9043303AA0DF1030320
:102B100039463046039301F003FBF0E703F5E07319
:102B200052F82330FFDE00BF000300500000AD0B61
:102B3000036803F01F025B09026004D0012B034805
:102B400018BF002070474FF0A040704700030050AE
:102B50002DE9F04FDFF89491DFF894A185B0154688
:102B6000834600EB810140F2FF18594503D1002054
:102B700005B0BDE8F08FDBF800305E04C3F3C3227C
:102B8000C3F3080400F1AC801B0E19F80270444531
:102B900008BF4FF0FF34222B00F2A580DFE803F0DE
:102BA00012191F22252B22A3A3A3A33B68A3A3A32F
:102BB000A3A3A3A3A3A36B818487A3A3A38A9194B4
:102BC000979A9D00C5F80C45601C5ED10BF1040B73
:102BD000CBE7C5F81445621CF8D000265FE0C5F8C5
:102BE0000845F1E7C5F81045F5E7631CC5F8084549
:102BF000ECD0002604E0661CC5F80C45E6D00126A2
:102C000003A80394FFF794FF039B012202FA03F346
:102C1000C0F80C3508E0C5F80845002FDBD1631C6F
:102C2000D4D0002632460627DBF80030019303F4A7
:102C30000040002818BF002203A8009218BF0126F8
:102C40000394FFF775FF039C019B009A00EB84003F
:102C5000C3F3412CD0F800473B0243EA8C031343F3
:102C600004EA0A04234343EA4603C0F80037ADE709
:102C7000C5F80C45D1E7C5F86045601CDBF80030AD
:102C8000A4D0C3F30043002BB9D003A80394FFF7EB
:102C90004FFF039B012606FA03F3C0F808353246BE
:102CA000C2E7C5F86445E8E7C5F86845E5E7C5F853
:102CB0006C45E2E7C5F82445621C87D00022012656
:102CC000B2E7C5F828457FE7C5F83045F4E7C5F811
:102CD0003445F1E7C5F83845EEE7C5F83C4573E7FC
:102CE0006FF0150044E76FF0850041E74C8B000062
:102CF000F0F8FCFF2DE9F041044647680D4604F06A
:102D000022FF4FF0200888B9264B1B7873B1642648
:102D1000606804F047FBF0B9012004F054FC013E68
:102D2000F6D10021212004F0AAFFF0E7EFF311868D
:102D3000314688F31288BFF36F8F606804F032FB6E
:102D4000A8B986F31188BFF36F8FEFE786F3118878
:102D5000BFF36F8FE5E7EFF31186314688F31288F2
:102D6000BFF36F8F606804F01DFB0028EED0BB69D5
:102D70001D706368BA691B680020C3F844250122EE
:102D8000C3F84825C3F82001D3F82041C3F85801FF
:102D9000D3F858019A6081F31188BFF36F8FBDE8B3
:102DA000F08100BFC60A0020F7B5054600220121C8
:102DB0000220FFF7D7F80220FFF7A4F86A6811682D
:102DC0001369C1F82435137D507D927D034313436D
:102DD000C1F86C356E68D6E9004313F0010350D09A
:102DE0002F6907F1080004F0FAFB334B984208D032
:102DF0003248334A012104F0C3F86FF0040003B0F5
:102E0000F0BD387A04F10C0204F5907104F0DDFB9A
:102E1000387A012707FA00F000F04EFF0823C4F8C3
:102E20000035B369C4F844350023C4F84835A760B9
:102E3000D4F85831002BFBD00021C4F800156B6882
:102E4000DC6801AA204604F080FA002805DB019B1B
:102E5000226819791868FFF77BFE6A6813680821F1
:102E6000C3F80015117A51B9D269C3F8342501228B
:102E7000C3F83825C3F81011D3F810111A600020D8
:102E8000BDE70822C4F80025B269C4F84425C4F897
:102E900048350123A360D4F82031002BFBD0002358
:102EA000C4F82031D4F820310123E3604FF480735B
:102EB000C4F80433BCE700BF0000AD0B048200007F
:102EC000548B00002DE9F0474568D0F8108000AF22
:102ED00006460021E86B04F0B5FA041E11DB296CEC
:102EE000481C1AD005F1440000F060FB10F1130FEC
:102EF00004460AD1334A3448012104F084FA6FF0C1
:102F000012042046BD46BDE8F087411D05D12F4A79
:102F10002D48012104F077FAF3E76B6B9847D8F856
:102F200008504FF00109D8E9023203EBC2039D4279
:102F300009D3404604F0DBFA73680021D86B04F033
:102F400081FA0024DDE7286804F0B8FD0346B0B933
:102F50002A68297910686C468AB06A461C4DD1618E
:102F60004FF4007111841B49C2E9055042F8101F4B
:102F700015484FF41151FEF7BFF9A546BFE7286881
:102F80002979EB88D0F810C0D0F808A0DCF8004010
:102F9000DA0754BF43F4B01383F4D01323F4801240
:102FA00009FA01FEDB074CBF4EEA040424EA0E04D2
:102FB000CCF80040DAF800309847041EA1DB083551
:102FC000B1E700BF918B0000FC810000BC8B0000CA
:102FD000D98B0000040000012DE9FF410569D0F8FC
:102FE00004802B6D0646A86C002835D1002B53D0E9
:102FF000B8F838406A6CEF6C9C4228BF1C46EB6CFA
:1030000053B1296D41B107F06041B1F1005F03D0C8
:10301000082C6F6E28BF082400926A6CAC651AB148
:10302000AA6C002A18BF2246CDE901271BB12B6DDF
:10303000002B18BF2346002269464046039301F047
:10304000F7FD184B984229D06FF00401304604B0C8
:10305000BDE8F04104F06DBA696CEF6CB8F8384027
:103060000A46ABB1834228BF03469C4228BF1C4698
:103070000029C4D001F06043B3F1005FBFD0082C39
:1030800028BF08242246286E04F08DFE2A6EB6E77B
:10309000844228BF0446EBE71946D7E704B0BDE8F1
:1030A000F08100BF0000AD0B10B502780346002A86
:1030B0005FD10C69A26D32B9606D6FF07301BDE82C
:1030C000104004F036BAE06C40B1216D31B1DB68DC
:1030D00023B1834202D0616E04F065FEA36CA26D41
:1030E00033B19A4213D9234A2348012104F08BF9C2
:1030F000236DA26D33B19A4222D91E4A1E48012186
:1031000004F081F9606DBDE81040FFF765BF9B1AC0
:10311000A3647BB9636B08336363A36B013BA36355
:1031200004F1480204F1380104F1340004F077F9A5
:103130006064DDE7636C002BDAD013446364D7E787
:103140009B1A23657BB9E36B0833E363236C013B74
:10315000236404F1500204F1400104F13C0004F046
:103160005EF9E064CEE7E36C002BCBD01344E3645C
:10317000C8E710BDFD8B0000FC8100002DE9F04F79
:103180008FB000AFC7E9023243687B608B88046967
:1031900080469804894633D44FF0FF324FF0FF3316
:1031A00004F1100002F070F9C4F80490D8F804B0EB
:1031B000D8F810A0DBF808303B609AF85D3023B1F6
:1031C000DAF80030994500F0E380B9F804E01EF425
:1031D00000631CD0AF4AB048012104F014F96FF02D
:1031E000850523689B8813F4005304D1636004F1C0
:1031F000100002F015F928463C37BD46BDE8F08FB7
:10320000A369002BC8D163689942C5D1CEE71EF0EF
:10321000010F16D06D4688B0D8F800106A469F4856
:10322000C2E905014FF4007191839D4942F8101FD6
:1032300099484FF4E251FEF75FF8AD466FF015057F
:10324000CFE71EF0080F05D0964A9348012104F0FD
:10325000DAF8F3E7CEF34513082B01D0924AF4E7EE
:10326000D9F800C0914B9C4501D8914AEDE70BF18C
:103270000C060FCE07F110050FC50FCE0FC53B682A
:10328000634528BF63469C4696E80300894B9C45EE
:1032900085E8030017D2884B9C4514D2874B9C4588
:1032A00011D2874B9C4553D8864B9C4552D8864BB0
:1032B0009C4551D8854B9C4550D88549854B864ABD
:1032C0008C4588BF13461EF0020F7B620EF004038C
:1032D00046D0002B14BF0323022387F82830CEF3F7
:1032E000001387F82930DBF80030D3F80835591C73
:1032F00012D01EF0020F03F01F00CEF340014FEA80
:1033000053134FF0010232D173B3934240F027813F
:10331000724B8240C3F80C259AF85D302BB15846A9
:1033200001F036FC00238AF85D306D4A434607F110
:103330001001584601F0F8FB6A4A9042034622D039
:10334000694A5548012103F024FE6FF0040548E75F
:10335000664BB8E7664BB6E7664BB4E7664BB2E739
:10336000003B18BF0123B8E74FF0A043D1E73BB1C2
:10337000012B40F0F780594B8240C3F80825CBE77A
:103380004FF0A043F8E701238AF85D30CAF80090B7
:10339000012384F85C307B68196C4A1C0AD003F165
:1033A000440004F0D7F8743004D1544A3A4802215A
:1033B00004F029F8FB68002B40F0A480636300232D
:1033C000A36304F1480204F1380104F1340004F06D
:1033D00026F8BB686064002B40F09D80E363002307
:1033E000236404F1500204F1400104F13C0004F0B4
:1033F00016F800252A46E06401212046256304F0E2
:1034000056F84046FFF7E8FDA06B2A462B4683425C
:1034100040F08A800023256C1946A94240F08B8039
:103420009A42264638BF1A464FF4FA5303FB02F578
:1034300056F8203B4FF4004C1B68B5FBF3F540F207
:10344000E730C83500214FF47A720023E5FB0C0108
:10345000FCF756FE02460B46304602F015F80246CF
:1034600000286FD0264A0C48012103F0CCFF00252C
:103470007868A56501F08CFB84F85D506FF07301EE
:10348000404604F056F8304602F024F86FF0730519
:10349000A7E600BF1B8C0000FC810000358C0000FB
:1034A00003000001578C0000768C000047E8010003
:1034B000A58C00000048E8010024F40000127A0006
:1034C000FF083D007F841E003F420F001FA1070040
:1034D0008FD0030048E8010090D0030000030050A3
:1034E000A93000000000AD0BD68C000000093D00A3
:1034F00080841E0040420F0020A10700FD8C0000C8
:10350000278D0000FB681B686363002B3FF457AFF7
:10351000FB685B6854E7BB681B68E363002B3FF400
:103520005EAFBB685B685BE7616B01EBC3010133B6
:1035300049680A446BE7E06B00EBC1000131406869
:1035400003446AE7256B15F1740F90D0002D3FF40A
:1035500048AE0146D8F8100003F0A9FF41E6C1F8D3
:103560000C15FFDE0023C3F80835FAE700F01F0250
:1035700040090DD001280ED10A4B03EB82030A4A01
:10358000D3F80007024042EA8102C3F800277047DF
:103590004FF0A043F1E702F5E072002353F8223028
:1035A000FFDE00BF00030050F0F8FCFFF0B587B06D
:1035B00001238DF8023002238DF804306B4403930D
:1035C0000F4601AB0DF1030100240493054602915F
:1035D000059400F041FF0C4B984206460FD103AA18
:1035E0003946284600F09CFDB0420BD09DF80310F0
:1035F000284600F02BFF6FF0040007B0F0BD6FF01D
:103600001200FAE72046F8E70000AD0B70B5012381
:1036100083400E4ABFF35B8FDC4352E8001F01EA90
:10362000040542E80056002EF7D1BFF35B8F4FF43C
:10363000803282400648C0F80823BFF35F8FBFF393
:103640006F8F0B4214BF0120002070BD180A0020AC
:103650000010014070B40E49D1E90034D01AC318EB
:1036600044F1000422F07F46C1E90034A6F50013BE
:10367000B3F5400F09D2074B1B681A0A1B069C19A9
:10368000054B42F10005C3E9004570BC02F0F8BBF0
:10369000B00600201C0A0020B806002011B3BFF3BA
:1036A0005B8F0123104A834052E800CF4CEA030CA1
:1036B00042E800C10029F7D1BFF35B8F0B4A4FF4FA
:1036C00080338340C2F80433094BBFF35B8F1B6820
:1036D000BFF35B8FC340DB0742BF064B4FF40032A2
:1036E000C3F80021704700BF180A002000100140F5
:1036F000140A002000E100E00D4B1868010A0006E2
:10370000BFF35F8F0B4BD3F80435181841F100015C
:10371000B3F5801F0AD2084BD3E90023904271EB26
:10372000030303D210F1807041F10001704700BF24
:103730001C0A002000100140B80600202DE9F04FBF
:1037400085B016461F469DF840A00446FFF75EFF71
:103750000190FFF7D1FFB04271EB070354D23E4B0B
:10376000301A67EB0101984271F100014FD23B4BD7
:1037700003EB0413D3E902239F4208BF96425ED0B5
:1037800037494FF4803804F1500508FA04F8AD00C9
:10379000C1F848832046ADB203F004FF26F07F4B0A
:1037A00005F1804504F5A87305F58835DC464FF032
:1037B00003090293029A2CF07F4341F82230C1F8AA
:1037C0004483D1F80435274A6FF00200C01A6044E0
:1037D00020F07F40904232D9286868B1D1F8043592
:1037E0000393A3EB0B0020F07F40B0F5000F26D928
:1037F000204603F0D7FE039BBAF1000F07D109EB77
:10380000030C09F10109D5E7BAF1000F09D06FF0F7
:10381000150520460199FFF741FF284605B0BDE890
:10382000F08F0123104ABFF35B8FA34052E8000FD3
:10383000184342E800010029F8D1BFF35B8F074924
:103840000E98230101EB0412C8500F9B5360C2E98C
:1038500002670025DDE700BF01008000A006002010
:1038600000100140FDFF7F00140A00207FB51C4CB2
:103870001C4BC4F80833C4F848331B4B00254FF0E9
:10388000FF304FF0FF31C4F80855C3E902014FF48F
:103890008033C4F80433154B02264FF40032012163
:1038A000C4F804631120C3F880212A46FEF75AFBAE
:1038B0001120FEF727FB0E4A0123A360236013604B
:1038C0000C4B0D4A0093CDE9015500232846FFF724
:1038D00035FF3046FEF7E8FE284604B070BD00BF55
:1038E0000010014003000F00A006002000E100E0EE
:1038F000180A002055360000FFFF7F002DE9F7432E
:103900002F4CD4F8043399070BD5D4F8043143B1C4
:103910002C4A0023C4F80431D4F80431136801336D
:103920001360D4F80433DA0329D5BFF35B8F264B39
:1039300053E8002F22F0010143E800100028F7D1DE
:10394000BFF35B8FD30702D4D4F84031BBB100255D
:10395000C4F84051D4F84031FFF7CEFEEFF31182A6
:10396000202383F31288BFF36F8F184BD3E90267CC
:10397000B042B94106D282F31188BFF36F8F03B012
:10398000BDE8F0834FF0FF384FF0FF39C3E90289FB
:10399000D3E900101D604FF48033C4F84833C4F8F5
:1039A0004051D4F8403182F31188BFF36F8F002962
:1039B000E5D0009032463B4628468847DFE700BF07
:1039C000001001401C0A0020140A0020A00600205C
:1039D00030B5431C124C85B005D08442A8BF0446C4
:1039E000012CB8BF0124FFF787FE0E4B0C4DD3E925
:1039F0000013401AB0F5000F10D22218AA4228BFB7
:103A00002A4652184FF0000007490091CDE9010005
:103A100043F10003FFF792FE05B030BD2A46F0E700
:103A2000FFFF7F00B00600205536000008B5FFF705
:103A300063FE024B1B68C01A08BD00BFB006002021
:103A40004FF08053D3F83021082A06D1D3F834310F
:103A5000052B02D8024AD05C70470020704700BF97
:103A60007B8D0000024AD2F80034002BFBD0704757
:103A700000E0014010B54FF08053D3F83021082A00
:103A80004ED14FF080420021C2F80C11C2F8101143
:103A9000C2F8381502F54042D3F80414C2F82015D4
:103AA000D3F80814C2F82415D3F80C14C2F828155A
:103AB000D3F81014C2F82C15D3F81414C2F830152A
:103AC000D3F81814C2F83415D3F81C14C2F84015F2
:103AD000D3F82014C2F84415D3F82414C2F84815BA
:103AE000D3F82814C2F84C15D3F82C14C2F850158A
:103AF000D3F83014C2F85415D3F83414C2F8601552
:103B0000D3F83814C2F86415D3F83C14C2F8681519
:103B1000D3F84014C2F86C15D3F84434C2F87035A9
:103B2000FFF78EFF18B13A4B3A4AC3F88C26FFF7DD
:103B300087FF18B1384BFB22C3F81825FFF780FF29
:103B400070B14FF080414FF08053D1F8E42ED3F89C
:103B5000583222F00F0203F00F031343C1F8E43E82
:103B6000FFF76EFF20B12D4B4FF40072C3F84026D3
:103B70004FF08053D3F83031082B1AD14FF08043E7
:103B8000D3F80024D20744BF6FF00102C3F8002429
:103B90004FF08053D3F83431052B02D8204AD35C40
:103BA0003BB14FF01023D3F808224FF08043C3F805
:103BB00058254FF01023D3F80022002A03DBD3F856
:103BC0000432002B22DA174901234FF01020C1F8EC
:103BD00004351224FFF746FFC0F80042FFF742FF0A
:103BE000C0F80442FFF73EFF0023C1F80435FFF799
:103BF00039FFBFF34F8F0C490C4BCA6802F4E062E7
:103C00001343CB60BFF34F8F00BFFDE710BD00BF74
:103C1000005000404881030000F000400090024046
:103C2000758D000000E0014000ED00E00400FA05A1
:103C300030B50468CCB1BFF35B8FB4FA84F3C3F141
:103C40001F03DBB201229A4024EA020250E8005F1F
:103C5000A54204D140E8002CBCF1000FF6D1BFF31F
:103C60005B8FE6D102480B7030BD0248FCE700BF15
:103C70000000AD0B0200AD0B10B50368CB40DB07B5
:103C800014D401238B400268BFF35B8F43EA020127
:103C900050E8004F944204D140E8001CBCF1000FF2
:103CA000F6D1BFF35B8FEED1014810BD0148FCE7B0
:103CB0000000AD0B0400AD0B014BC3F804057047C9
:103CC00000F00140F7B50546F8B101281BD10422E8
:103CD0004FF4807301464FF0804003440244C0F823
:103CE00008130026012111601E608D421B688DF8AB
:103CF000071008BF0DF1070642F210744FF080471D
:103D000045B1012D28D003B0F0BD0C224FF48273D1
:103D10000221E0E7D7F8183403F480333EB9002BD2
:103D2000F1D0012003F04FFC013CF3D1EBE7D7F8D1
:103D3000182402F003023260002BE4D09DF8070043
:103D4000012803D103F03FFC013CD9D1012DDAD188
:103D50000C4B00225A71D6E7D7F80C3403F48033A9
:103D60003EB9002BF4D0012003F02DFC013CF3D12F
:103D7000EEE7D7F80C2402F001023270002BDDD1FF
:103D8000E6E700BF200A0020044B1A7922B901227D
:103D900018609A800248704702487047200A002045
:103DA0000000AD0B0C00AD0B08B5074B1B682BB129
:103DB0000020FEF7C9F808B9FEF7A4F84FF08043D9
:103DC0000022C3F8182508BD200A002010B510B144
:103DD000012843D010BD4FF08043D3F81814D3F816
:103DE0001824C80321D502F00303012B04D013B11A
:103DF0000020FFF767FF00234FF080420220C2F847
:103E0000183508224FF4827303F1804300211960B2
:103E100002F180421C6801241460154A12680AB33A
:103E20004FF08043C3F80403D4E7D3F81424D10738
:103E3000E1D5D3F81C249207DAD40D4A12681AB1DE
:103E40000222C3F80423C5E7D3F80421002AFBD0DB
:103E50000022C3F80421D3F80431BBE700224FF459
:103E60008073D1E71A68002AFCD019601B68B1E79B
:103E7000200A0020F8B54FF080431C4ED3F80443CD
:103E80000125002704B9F8BDB4FA84F0C0F11F0081
:103E9000830003F580739BB203F1804305FA00F2BF
:103EA000196892B224EA02040029EBD01F601B6853
:103EB0004FF08043012AC3F8082305D0022A08D016
:103EC0003368C0B29847DDE77379002BDAD172719D
:103ED000F6E7D3F81814D3F818148907F0D1C3F80B
:103EE0001855C3F804239D60CCE700BF200A0020CA
:103EF000036803F01F025B09026004D0012B034832
:103F000018BF002070474FF0A040704700030050DA
:103F1000034A430900F01F00D35C1844C0B2704745
:103F2000818D000070B50546FFF7F2FF0C4C08309C
:103F30000E4634F81030DA0508D5C3F3432304EBFA
:103F4000C302284654F8333052689847A3682BB10F
:103F5000E26831462846BDE87040184770BD00BF92
:103F6000F000002008B5FFF7D3FF034B083033F80B
:103F70001000400B08BD00BFF000002008B5FFF79F
:103F8000C7FF034B083033F81000C0F3400008BDF2
:103F9000F000002008B5FFF7BBFF034B083033F8F3
:103FA0001000C0F3401008BDF0000020034611F0DF
:103FB000010010B5CCB20DD1A207C4F3400012D558
:103FC000094AD2F820055860C2F82005003818BF09
:103FD000012008E04FF0A041D1F820251A60C1F877
:103FE0002025002AE8D010BD0003005010B5FFF7CF
:103FF0008FFF124A083032F81030D9051CD5C3F3B0
:10400000432123F4F85322F8103002F10E0400206B
:1040100034F8023F13F4807F03D0C3F34323994263
:104020000AD001303028F3D1002342F8313004485F
:10403000BDE81040FFF720BE10BD00BFF00000201B
:1040400068010020F0B50546002004460126074619
:104050008C420BD1114BD3F87C2132B10022C3F832
:104060007C21D3F87C3140F00040F0BDE3B29B00EE
:1040700003F580729B0806FA03F31D420BD002F190
:10408000804202F5C042D2F800C0BCF1000F02D05D
:104090001760126818430134DAE700BF006000407F
:1040A000F7B506460846FFF733FF194F00F108053C
:1040B0000C4637F81530DB0727D5304603F0FCFAFD
:1040C0002046FFF767FF40B12046FFF74BFF3168FE
:1040D00000F5A270002341F820302046FFF786FF4C
:1040E000002301A827F815300194FFF701FF019B79
:1040F00000EB8300074BD0F80027134043F0020386
:10410000C0F80037044803B0F0BD0448FBE700BF27
:10411000F0000020F0F8FCFF0000AD0B0400AD0B38
:104120002DE9FF41164680460846FFF7F1FE0D4691
:104130003168044609B32846FFF720FF18B1284626
:10414000FFF728FF10BB0023CDE900338DF80E30B8
:104150008DF80F300DF10F020B4628460DF10E01C0
:1041600003F041FA474A04F1080132F8113023F014
:10417000020343F0010322F81130736863B3284649
:104180001F785968FFF7FAFE10B1D1B13E4826E01A
:104190003C4A04F1080032F8103023F02003DB041D
:1041A000DB0C22F8103061B1032FEFD87168496839
:1041B00091F800C0D8F80010A7B90CF5A27C41F81E
:1041C0002C70304A04F1080132F8113023F01C033E
:1041D00043EA870322F81130B3684BBB2B4804B085
:1041E000BDE8F08101EB8C0143EA4C33D1F810E5D6
:1041F0002EF0030EC1F810E5D8F8001001EB8C0E7C
:1042000043F02003DEF8101522F8103021F44F316E
:1042100021F44071CEF810152902DEF8108501F462
:104220007C5141EA074141EA0801CEF81015C8E780
:10423000D3E900672846FFF7D9FE002ECED0114DF6
:10424000D5E90023964203D19F4201D1002209E023
:104250000F480DF10F01FFF7EBFC0C4B9842BED15C
:104260009DF80F2045F8326005EBC20308345F600B
:1042700035F8143043EA422343F4807325F81430B0
:10428000ACE700BFF00000200400AD0B0000AD0B58
:10429000680100202DE9F0430C4685B08046204699
:1042A00011461E46FFF734FE054629B32046FFF7A8
:1042B00065FE18B92046FFF76DFE18BB314F05F1BA
:1042C000080937F8193013F01C0F02D04B78012B76
:1042D00018D001238DF80F300023CDE900134A1CBC
:1042E0008B1C20460DF10F0103F07DF937F81930D2
:1042F00043F0030327F81930002E41D02046FFF782
:104300003DFE18B9204805B0BDE8F08396F800C01E
:10431000D8F800301B4F0CF5A272002143F8221090
:1043200005F1080237F8121021F02001C904C90C68
:1043300027F8121075781DB3D8F80000B67800EB96
:104340008C002D04D0F8103523F4991323F4F8537E
:10435000C0F81035230203F47C5305F440353605CC
:10436000D0F810E52B4306F4801641EA4C31334374
:1043700041F0200143EA0E0327F81210C0F810356F
:104380000248C0E7F00000200400AD0B0000AD0BB8
:10439000014BC3E902127047F000002010B5084637
:1043A0001446FFF7F7FD50B10846FFF7B1FD054B86
:1043B000083033F8103004485B0B237010BD0348FD
:1043C000FCE700BFF00000200000AD0B0400AD0BC7
:1043D00070B5164D95F8804006462CBB21466022EC
:1043E00005F1100003F0EDFC30682E6F21468E427F
:1043F0000ED10023C0F87C31D0F87C3140F3073077
:10440000FDF780FD01230A4885F88030AB6770BD59
:10441000CBB29B0003F580727C2B08BF845001F166
:10442000010108BF8358E2E70248F0E7F0000020EE
:104430000000AD0B0C00AD0B034B93F8800000386F
:1044400018BF0120704700BFF00000200148FFF7AF
:1044500013BC00BF640100200148FFF7E9BB00BFA7
:104460006401002073B503681646D3F80423002ABC
:10447000A8BF4FF000420546A8BFC3F80423084672
:104480000C46FFF787FD00B30846FFF777FD0146AE
:10449000D8B92046FFF766FD04B2A40004F5807287
:1044A000034628688150296882582144D1F8102594
:1044B00042F00102C1F810252EB12968012202FA4A
:1044C00003F3C1F8043302B070BD2046FFF720FDAE
:1044D0000F4B083033F81030C3F38203042B12D093
:1044E000052B12D001A80194FFF702FD019AD0F824
:1044F0001035D34003F00103991C204602B0BDE8FB
:10450000704003F0B9B80321F7E70221F5E700BFD7
:10451000F00000202DE9F04F694BDFF8A891D3F8A7
:104520000403D9F87010C0B289B040F00040FFF722
:1045300089FD051E2EDACA4600235AF87C1F06A8FC
:10454000CDE90633FFF732FD5F4B01930DF11808FB
:104550004FF0000B019A12F8013B0192DA0803F0C8
:1045600007031AF8022022FA03F3DA071BD408F132
:104570000408BBF1000F13D000214FF00040FFF7FB
:1045800061FDD9F87C1006A8FFF710FD0028DBD1EB
:1045900025F000450124002D79D109B0BDE8F08F48
:1045A0004FF0010BD6E7494B5B440293D8F800105B
:1045B0000029DCD0029B91FAA1F11C78B1FA81F1BB
:1045C00041EA44142046FFF7A3FC0830059439F86B
:1045D0001070C808BB0818F80020039301F0070109
:1045E000012303FA01F122EA010208F8002005A8DC
:1045F000FFF77EFC059A039B02F5E072C7F3820683
:1046000050F822205B073746C2F3014224D52046EA
:104610003946D6B2FFF786FC05A80594FFF768FC7B
:10462000059B03F5E07350F82330C3F301439E422A
:1046300007D10021204603F01FF83146204603F041
:104640001BF805A80594FFF753FC059B012202FA0D
:1046500003F3C0F82035A9E7022A0CD10321204634
:1046600003F00AF806F00503012BEAD1394620468B
:10467000FFF758FCE5E702212046039202F0FCFF19
:10468000032EF3D0039A032ADBD1022EEDE795FA2D
:10469000A5F3B3FA83F304FA03F29B0003F180431A
:1046A00003F5C04325EA0205D3F81005D3F8101529
:1046B000C0F30520C1F30141FFF734FC6BE700BFF5
:1046C00000600040F0000020918D0000918D0000FE
:1046D00001460148FFF7ACBA74010020036803F0FB
:1046E0001F025B09026004D0012B034818BF0020A1
:1046F00070474FF0A040704700030050012370B591
:1047000004460D464361642600220221204603F040
:1047100013F820B9012002F056FF013EF4D1002326
:104720006B774FF08051D1E94C1208291AD1052A34
:1047300018D80E498A5CAAB14FF0FF32D4F80805A8
:10474000D4F80C15C4F80035C4F80825C4F80C25B5
:104750000922C4F80025C4F80035C4F80805C4F8D7
:104760000C1570BD0023C4F80035FAE7938D0000E6
:1047700073B51646421C1C460546069B18D00129F7
:1047800002D1BBB103F016F801A80195FFF7A6FF0F
:10479000019B00EB83002402D0F80027074B44EA7A
:1047A00086040C4313401C4344EA4101C0F800173F
:1047B00002B070BD03F00BF8E6E700BFF0F8FCFFB5
:1047C0004B69184A934221D00DD8174A93421DD005
:1047D00007D8164A934219D0154A934216D0154865
:1047E0007047154AF9E7154A934208D004D8144A8D
:1047F00093420BD0134AF0E7134A9342EFD1027968
:10480000124B1348002A08BF1846704791F8213010
:1048100013B1CB680133F2D1CB690133EFD10C482E
:10482000704700BF80841E0020A1070048E80100F7
:1048300090D003000400AD0B40420F000024F400B0
:1048400000093D0000127A000048E8010300AD0BAA
:104850000000AD0B2DE9F04F067985B007460C46F8
:10486000002E00F0C08091F82130002B00F0BF80B6
:1048700091F8223003934FF0010865697C4B9D420B
:1048800000F0CD8000F2BD807A4B9D4200F0CA80DE
:1048900000F2AF80784B9D4200F0C780774B9D427D
:1048A0000CBF4FF080654FF08045DFF8D4B194F82D
:1048B0002300242202FB06B3997F60F3000199775D
:1048C0003B79217C02FB03B39A7F61F341029A7723
:1048D00094F82390B9F1000F34D16269694B9A4280
:1048E0000CBF4FF0030A4FF0000A237E012B94BF48
:1048F000002301230093206853464A460121FFF715
:1049000037FFCDF80090606853464A460121FFF713
:104910002FFFCDF80090A27EA06853464946FFF7CE
:1049200027FF237C83F001030093E06853464A4647
:104930000121FFF71DFF01210091E06953464A461E
:10494000FFF716FF2423B8F1000F77D003FB06B35F
:104950004FF0FF321A62A67C217E627ED4F80CC032
:1049600094F810803B79002B77D094F8200094F8CD
:1049700024E03B68BEF1000F13D1D4E9009ED4F8C7
:1049800008A0E469C3F80895C3F80CE5C3F810A5BE
:10499000C3F86C45039CC3F814C5C3F86885C3F815
:1049A0006445003A18BF01220229C3F8C065C3F864
:1049B000245554D0032955D0012901D142F00202D7
:1049C000C3F85425C3F860053B79242253435BF8B0
:1049D0000330002B49D0386840F3073005B0BDE8FC
:1049E000F04FFDF78FBAB0460223039345E7984690
:1049F000FAE7254B9D420CBF4FF080554FF08045A4
:104A000053E7224B9D4213D01E4B9D4213D0204BA7
:104A10009D420CBF4FF000454FF0804545E74FF0F9
:104A2000005542E74FF000653FE74FF000753CE767
:104A30004FF0206539E74FF0A05536E703FB06B687
:104A4000E2683262227CB37F62F34103B377A67CD3
:104A5000217E627E4FF0FF3C84E7022087E742F030
:104A60000402ADE742F00602AAE705B0BDE8F08F08
:104A700080841E0020A1070048E8010090D00300B8
:104A80002C0A00200048E80140420F000024F400F6
:104A900000127A00431C07B50ED0019001A8FFF761
:104AA0001DFE019B00EB8300054BD0F8002713404F
:104AB00043F00203C0F8003703B05DF804FB00BF09
:104AC000F0F8FCFF70B501F10C020C4640210546E0
:104AD00002F032FE10B3124B9D4201BF114B1A6817
:104AE0004FF08043C3F8002E206A421C04D0A37FFD
:104AF0009B0710D502F06BFE637F1BB12146284651
:104B0000FFF7FCFD002320462372616850F8083B44
:104B1000BDE87040184702F04DFEEDE770BD00BFE4
:104B200000F00240280A00202DE9F04790F8049098
:104B3000144C242505FB09F504EB050A1F469AF8D9
:104B40001C3006469046D3B961B96251CAF8047068
:104B5000242303FB0944002363770B4801232377B5
:104B6000BDE8F087FFF72CFE074B9842F8D130469E
:104B700044F80580CAF80470FFF76CFEE8E70348C4
:104B8000EEE700BF2C0A00200000AD0B0C00AD0BBF
:104B90002DE9F041044606790068224D40F30730C4
:104BA000FDF7BEF924237343EB5853B123681E4A23
:104BB000C3F8082306EBC601206805EB8101FFF767
:104BC0009DFD2421236801FB0651D3F80805D3F885
:104BD0000C75D3F810858B7FDB0716D4FFF75AFFCF
:104BE0004046FFF757FF3846FFF754FF086AFFF7C4
:104BF00051FF23794BB12368D3F86C05D3F8141512
:104C0000FFF748FF0846FFF745FF2368074A93422E
:104C100004BF01225A60242303FB065500232B778F
:104C2000BDE8F0812C0A00205201080000F002408B
:104C30002DE9F0430779DFF8AC8124237B43164646
:104C400008EB03020D46517F85B08146002940F0F4
:104C5000C68058F8033023B116F0140F04BF0123A7
:104C6000537795E80F00242404FB078404F10C0C0F
:104C70008CE80F00206A431C04D0A37F99071AD543
:104C800002F098FD2968D9F8004021B101F0604395
:104C9000B3F1005F06D1AB6883B103F06043B3F1B9
:104CA000005F0BD0242303FB078300224E485A7772
:104CB00005B0BDE8F08302F08AFDE3E74B4B9C4270
:104CC00024D14FF080436A68D3F8000E484B186037
:104CD000E2B1484821F4FF5323F01F0383426ED80A
:104CE0005018DFF814C1C3F34F3101228A4000216C
:104CF00003F50053984241EA02014FEA420201D90A
:104D00006345F5D34FF08043C3F8001E16F001034E
:104D100018BF0123C4F8503516F0020318BF012351
:104D2000C4F8403595E80F00EC468CE80F00039B73
:104D3000C4F84405C4F84815C4F83425C4F8383517
:104D40000023C4F81831D4F8183116F008054FF0D4
:104D50000703C4F800350FD124237B4358F8032000
:104D60000123236142B9D4F81831002BFBD06246ED
:104D70004021204602F0E0FC24237B4358F8033016
:104D80001BBB1A4B9C4201BF194B1A684FF0804362
:104D9000C3F8002E242303FB0783186A421C04D0A7
:104DA0009B7F9B070ED502F012FD35B907EBC707B5
:104DB00008EB87012046FFF7A1FC104878E74FF485
:104DC00080719FE702F0F6FCEFE716F0040F4FF05A
:104DD000400314BFC4F80833C4F80433EDE70848AF
:104DE00066E700BF2C0A00200A00AD0B00F002406D
:104DF000280A0020FFFF0020002001200000AD0B4A
:104E00000B00AD0B02494FF04020FFF75BBE00BF27
:104E10002C0A002001490248FFF754BE500A002026
:104E200000F002402DE9F04FD0F810804668C8F835
:104E30000000002388F8C43085B00446306802F0D2
:104E40003DFE28B96FF01205284605B0BDE8F08F89
:104E5000F3883068317943F480320769D0F808C0AC
:104E600013F0010F4FF001053B6805FA01F514BF7F
:104E70002B43AB433B60DCF80030984705460028E5
:104E8000E2D13279DFF808A2824E01239340824AB0
:104E90003220C8E9032302F023FD052002F020FDA3
:104EA0005A223A21606802F02BFD052002F018FD1D
:104EB0007A4B1B6801932F46019BBB4200F2B680E0
:104EC000012002F00DFD00238DF80D303C266068B6
:104ED0000DF10D026C2102F0DFFC9DF80D30802BEE
:104EE00040F0AD80002222216068DFF8B4A16D4E51
:104EF00002F006FD00225521606802F001FD072244
:104F00007F21606802F0FCFC40221146606802F0DC
:104F1000F7FC00227F21606802F0F2FC6068012249
:104F2000682102F0EDFC604B1B6801930027019B98
:104F30006068BB4200F29E8000210DF10E028DF8E8
:104F40000E1002F0A9FC9DF80E30512B7FF47AAFC1
:104F500001224FF4C861204602F0EBFC024620B962
:104F60004FF4C861204602F0E4FC05227821606815
:104F700002F0C6FC002607460DF10F0260688DF8AE
:104F80000F60782102F088FC834600287AD19DF8D2
:104F90000FA060688DF80F600DF10F027A2102F00A
:104FA0007BFC0346002870D19DF80F60B6000022FC
:104FB0008DF80F20606801930DF10F027C2102F043
:104FC0006BFC78BB019B9DF80F9047EA0B071F43D2
:104FD00028D14FEA8A1A47F23052B2FBFAF2FF2A7E
:104FE00028BFFF226068D2B2792102F089FCC8B9DB
:104FF0002E4A6068B601B2FBF6F2FF2A28BFFF22F4
:10500000D2B27B2102F07CFC60B9294A60684FEA89
:105010004929B2FBF9F2FF2A28BFFF22D2B27C2134
:1050200002F06EFC012388F8C4300DE716F8012B5E
:105030001AF8011B606802F063FC01373CE70120AD
:1050400002F04EFC013E7FF442AF9DF80D30802B04
:105050003FF448AF606814227F2102F051FC3246D1
:1050600060686C2102F04CFC606832467F2102F0DF
:1050700047FC37E716F8012B1AF8011B02F040FC39
:10508000013754E74FF0010A83E701268FE700BF9D
:105090003E8E0000B58D000023780000948400004F
:1050A000B08D0000AB8D000090840000801A0600D7
:1050B000404B4C0010B50446FCF74EF80348044A38
:1050C000012101F05DFF204602F003FDE4810000B4
:1050D000C78E00002DE9F843044600AF0D46EFF3FC
:1050E0001188202383F31288BFF36F8F0428294A85
:1050F00098BF294B9668117C94BF53F82030274BFA
:10510000E9468AB06A462648C2E9073140F20133CF
:105110009384244BC2E9050442F8103F224800233F
:105120004FF43151FCF7E8F8CD4645B1EB69C3F3D4
:10513000080323B11D4A1C48012101F021FF2EB1B3
:10514000304602F009FD08B1037803B91848E94672
:105150008AB06A46174BD061C2E9053640F2013386
:105160001384154B42F8103F00230F484FF41151A0
:10517000FCF7C2F82946CD462046FFF79BFF88F38F
:105180001188BFF36F8F3046FCF764FEBD46BDE863
:10519000F88300BF740A002098840000D68E0000B7
:1051A000EC8E000005000001E4810000148F000077
:1051B000E48E0000358F0000040000010E4B70B536
:1051C00053F820400D4E013053F82050A54200D82E
:1051D00070BD54F8040B0028F8D0B04205D3084B3A
:1051E000984202D203689847F0E7037FDB07EDD4CB
:1051F00002F077FCEAE700BFAC840000CC7F00003F
:10520000E07F000070B52A4B2A4C2B4D012286B05E
:1052100003201A70FFF7D2FF00F06AFF0420FFF7A7
:10522000CDFF2646AE4204F1300410D300F032FB2D
:10523000204C224EAC4226D300F040FB01F0E5F9B1
:105240001F4A137B23F00103137306B070BD54F89B
:105250000C3C059354F8103C049354F8143C03930D
:1052600054F8183C029354F81C3C019354F8203C29
:10527000009354E90A2354E90C0100F065F954F84D
:10528000303C5E65CDE7D4E90A23B3F1FF3F08BFA8
:10529000B2F1FF3F05D052EA0301206803D100F0CC
:1052A000C9FB3034C6E73146183000F059FDF8E745
:1052B000C60A002060810000608100004B7C000075
:1052C0000808002008B50348034A0021121A02F01A
:1052D0001FFC08BDE0010020C80A002070B50023B3
:1052E00086B00122CDE90423134E144D01930F2201
:1052F000CDE902321249142303FB005506EBC01618
:1053000004464FF4C07000FB04110E4B00954FF49F
:10531000A072304600F018F9737B0B4AEE6023F060
:10532000040373734FF4046304FB033313442C74BA
:105330006B6006B070BD00BF88070020740A0020B3
:1053400080160020197B0000400E0020BFB5002011
:10535000FFF734FF2A4B83F308882A4C2A4F6369EE
:1053600043F4007363610025E02384F82230E5777D
:1053700025766576A57684F82050636A43F4E023A9
:10538000636284F82350FCF733FDFCF77DFE4FF099
:10539000FF33A362E362FCF751FFFCF799FEFBF7D2
:1053A00037FE1A481A4C00F047F902F086FB01203C
:1053B000FFF704FF0220FFF701FF00F0B3FA154BDF
:1053C00015495C61154B05930123CDE903534FF457
:1053D00080623B46CDE901550095204600F0B4F8C7
:1053E000627B064622F004022046627302F0F0FB64
:1053F0002846FFF773FF3A4631462046FCF726FE63
:105400008016002000ED00E0055200008808002012
:1054100008080020740A002000180020978F000060
:1054200070B5EFF31186202383F31288BFF36F8FDB
:105430000468A0421AD0CCB1D4E9003213605A609B
:10544000637B002523F002036373C4E90055A56064
:1054500004F1180002F051FC2046A56702F0B8FBE9
:1054600031460848BDE8704000F0EEB9D0E902329C
:105470009A4218BF0133836086F31188BFF36F8FA0
:1054800070BD00BFC70A002013B5EFF311812024BF
:1054900084F31288BFF36F8F846844B1013C846049
:1054A00081F31188BFF36F8F002002B010BD52EA64
:1054B000030406D181F31188BFF36F8F6FF00F00E3
:1054C000F3E7CDE900230246014800F09BF9ECE741
:1054D000C70A00202DE9F0410546EFF3118720238C
:1054E00083F31288BFF36F8F00231E466FF00A0804
:1054F0002C68A54216D0ACB1D4E9003213605A60D2
:10550000637BA66023F002036373C4E9006604F1C1
:10551000180002F0F2FBC4F87880204602F058FB35
:105520000123E5E70022AA602BB139460548BDE812
:10553000F04100F089B987F31188BFF36F8FBDE8A0
:10554000F08100BFC70A00202DE9F043073285B083
:1055500022F007020E461F461099017300F158030E
:105560007F32C0E916330446002322F03F020421B3
:10557000836041733F2A0F98A073C4E90633E37335
:1055800006F14009A2F1400805D883F31188BFF362
:105590006F8F084602DFB51829462046FCF7D0F980
:1055A00007300E9B20F00700A066C4E9189802930C
:1055B0000D9B01932D1A0C9B00932A463B463146C6
:1055C0002046FCF711FD00236365044B9B6803B183
:1055D000DB6EE366284605B0BDE8F083740A002060
:1055E000F0B587B000250595109D04950F9D039596
:1055F0000E9D0295DDE912760D9D01950C9D00959D
:105600000446FFF7A1FFB6F1FF3F08BFB7F1FF3F28
:1056100005D056EA070305D1204600F00BFA2046D4
:1056200007B0F0BD3A46334604F11800014900F0D6
:1056300097FBF4E74B7C000040F2011383810023C9
:10564000C0E91833C366014B98607047740A0020A4
:10565000094A93686FF00A019967084958674B68CF
:1056600043F080534B60002383F31188BFF36F8FA7
:105670009368986F704700BF740A002000ED00E047
:1056800070B590F90D20437B002A36DBD90634D162
:105690001B4C63F07F032246437352F8183FE169C5
:1056A000934207D1C0E900210860E06111E099420E
:1056B000F8D01B68002BF5D090F90E5093F90E60CE
:1056C000B542F4D0AE42F2DD5968C0E9003108605D
:1056D0005860A569954200D005B9E568A3685A7B72
:1056E000D20604D1DA897F2A01D9AA6932B1AB4244
:1056F00002D0284600F092FA656170BD6361FCE754
:10570000740A002038B590F90D20437B002A014629
:1057100004DA03F07F03437302F020FA0D4D2A46AA
:10572000AB6852F8184F944200D004B9EC688B4231
:1057300007D05A7BD20604D1DA897F2A01D9A2691F
:105740002AB1A34202D0204600F068FA23466B61DA
:1057500038BD00BF740A0020B3F1FF3F08BFB2F1AB
:10576000FF3F03D00249183000F0FABA704700BF7B
:105770004B7C000070B590F90D20437B002A014658
:1057800004DA03F07F03437302F0E8F94B7B1C4C0F
:1057900063F07F0322464B7352F8183FE06993424F
:1057A00007D1C1E900200160E16111E09842F8D021
:1057B0001B68002BF5D091F90E5093F90E60B5429D
:1057C000F4D0AE42F2DD5868C1E9003001605960A2
:1057D000A569A368954200D005B9E5688B4207D05A
:1057E0005A7BD20604D1DA897F2A01D9AA692AB163
:1057F000AB4202D0284600F011FA2B46636170BD1F
:10580000740A0020F8B50E4B0C4611460D4A9868F4
:105810001060DDE90667EFF31182202282F312881F
:10582000BFF36F8F9D68284602F0AAF928463246DA
:105830003B46FFF791FF2046BDE8F840FFF708BF61
:10584000740A0020940A002049B9EFF3058030B9AA
:10585000054B5A699B689A4201D0FFF7F9BE81F364
:105860001188BFF36F8F7047740A0020034648B950
:10587000EFF3058232B9064A51699268914201D02C
:10588000FFF7E6BE83F31188BFF36F8F704700BF49
:10589000740A0020EFF31181202383F31288BFF3F1
:1058A0006F8F054B9A68D37B013BD37381F31188CB
:1058B000BFF36F8F704700BF740A002070B5EFF31D
:1058C0001186202383F31288BFF36F8F144DAB68CA
:1058D000DA7B0132DA732A4652F8184F944200D02C
:1058E00004B9EC685A7BD20604D1DA897F2A01D93F
:1058F000A2692AB1A34202D0204600F08FF92346C4
:105900006B6186F31188BFF36F8FEFF31180202353
:1059100083F31288BFF36F8FBDE87040FFF7A6BF17
:10592000740A0020024B03F11802C3E906227047F3
:10593000740A002070B5EFF31186202383F31288D8
:10594000BFF36F8F1B4CA168E0690B68814214BFE5
:105950001A46002249680B605960A368E1692AB9B8
:10596000154AC3E900210B60E3610CE093F90E00D6
:1059700092F90E50A84218D0854216DD5168C3E94D
:1059800000210B605360A5690B4B9D4200D005B907
:10599000E568A3689D4202D0284600F03FF96561A2
:1059A0003046BDE87040FFF753BE8A42D8D0126837
:1059B000D5E700BF740A00208C0A0020F8B550EA31
:1059C000010306460C4603D1FFF7B4FF0020F8BDE3
:1059D000EFF31187202383F31288BFF36F8F124DEB
:1059E000124BA8681860FFF78DFEA868104923467F
:1059F0003246183000F0B4F9AA68537B43F0040330
:105A0000537304463846FFF723FEAB68D3E90A23F5
:105A1000B3F1004F08BF002AD8D102F096F9201A3E
:105A200020EAE070D3E700BF740A0020940A002047
:105A30004B7C000038B50446EFF31185202383F337
:105A40001288BFF36F8F437B5B070FD5183002F0CE
:105A500054F9637B23F0040320466373FFF710FEC1
:105A600029460548BDE83840FFF7EEBE85F31188AA
:105A7000BFF36F8F38BD00BFC70A0020014B986885
:105A8000704700BF740A00202DE9F8430446077BE5
:105A9000EFF31185202383F31288BFF36F8F437BCD
:105AA000190705D585F31188BFF36F8FBDE8F8831B
:105AB000D90943F008025AD14273A36813B12046B2
:105AC00002F054F804F1180002F017F9A66D04F181
:105AD0005808B04511D04FF0000976B1304602F0B9
